:100000000C946B000C945C020C9488000C94880097
:100010000C9488000C9488000C9488000C94880040
:100020000C9488000C9488000C9488000C94880030
:100030000C9488000C9488000C9488000C94880020
:100040000C9488000C9488000C9488000C94880010
:100050000C94880007634236B79BD8A71A396856B4
:1000600018AEBAAB558C1D3CB7CC5763BD6DEDFDDA
:10007000753EF6177231BF000000803F0800000097
:10008000BE922449123EABAAAA2ABECDCCCC4C3E8D
:1000900000000080BEABAAAAAA3E00000000BF007C
:1000A0000000803F0000000000084178D3BB438778
:1000B000D1133D190E3CC3BD4282AD2B3E68EC828C
:1000C00076BED98FE1A93E4C80EFFFBE01C4FF7F11
:1000D0003F000000000011241FBECFE5D8E0DEBFC6
:1000E000CDBF10E0A0E6B0E0E8EAF4E102C0059080
:1000F0000D92A638B107D9F720E0A6E8B0E001C01C
:100100001D92A738B207E1F70E9473020C94520ABD
:100110000C9400009BB3907C9BBB8111DC9A8BB349
:10012000962F92959F70892B8BBBDD9A8DE08A95D7
:10013000F1F70000DD988DE08A95F1F700008BB3B0
:10014000807F8BBB8BB36F70682B6BBBDD9A8DE0B0
:100150008A95F1F70000DD988DE08A95F1F70000AF
:1001600008958AB38F638ABB63E380E00E948A00AC
:1001700087EA91E60197F1F700C0000062E380E0B2
:100180000E948A0087EA91E60197F1F700C000001B
:1001900068E280E00E948A0087EA91E60197F1F721
:1001A00000C0000061E080E00E948A0087EA91E6DA
:1001B0000197F1F700C000006CE080E00E948A0027
:1001C00087EA91E60197F1F700C0000008958111D8
:1001D00004C060680E948A000895606C80E00E94FC
:1001E0008A000895EF92FF920F931F93CF93DF93AE
:1001F0008C017C01C0E0D0E007C0F70161917F0174
:1002000081E00E948A002196F80101900020E9F720
:100210003197E01BF10BCE17DF0778F3DF91CF9119
:100220001F910F91FF90EF9008958F929F92AF9240
:10023000BF92CF92DF92EF92FF920F931F93CF93D3
:10024000DF93CDB7DEB7C456D1090FB6F894DEBF41
:100250000FBECDBF6B017C0120E030E0A9010E9400
:10026000D90388231CF00BE710E002C000E610E081
:10027000E894F7F8C701B6010E94DE034B015C0168
:10028000072E000C880B990B0E9416049B01AC01F1
:10029000C701B6010E946C0320E030E048EC52E454
:1002A0000E94C6040E9483050E94DE037F936F9321
:1002B0009F928F921F930F9382E690E09F938F936C
:1002C0008E010F5F1F4F1F930F930E9468077801E5
:1002D0000FB6F894DEBF0FBECDBF00E010E067019F
:1002E00008C0F70161917F0181E00E948A000F5FE1
:1002F0001F4FF60101900020E9F73197EC19FD0935
:100300000E171F0770F3CC59DF4F0FB6F894DEBFFE
:100310000FBECDBFDF91CF911F910F91FF90EF9056
:10032000DF90CF90BF90AF909F908F900895CF9225
:10033000DF92EF92FF920F931F93CF93DF93CDB78E
:10034000DEB72A970FB6F894DEBF0FBECDBF9F93DE
:100350008F938CE690E09F938F938E010F5F1F4FDA
:100360001F930F930E94680778010F900F900F90D2
:100370000F900F900F9000E010E0670108C0F701A8
:1003800061917F0181E00E948A000F5F1F4FF6019B
:1003900001900020E9F73197EC19FD090E171F07AE
:1003A00070F32A960FB6F894DEBF0FBECDBFDF9173
:1003B000CF911F910F91FF90EF90DF90CF90089514
:1003C0004F925F926F927F92AF92BF92CF92DF92E5
:1003D000EF92FF920F931F93CF93DF93EC01D5958C
:1003E000C795D595C795D595C795D595C7955E0100
:1003F000AA2488E0B822D3FF44C0D195C195D10981
:10040000DF703FC0B801012E000C880B990B0E94D1
:1004100016049B01AC0160E070E080E090E40E9473
:1004200033056B017C01BE0161707727072E000C3C
:10043000880B990B0E941604A70196010E94C6041E
:100440009B01AC01C301B2010E946D032B013C0171
:10045000D595C7950F5F1F4FA9F6DD27BE01DD0FAC
:10046000880B990B0E941604A30192010E946D0350
:100470006B017C01AB2859F0F7FAF094F7F8F0948F
:1004800006C00CEF1FEF412C512C3201BBCFC7012E
:10049000B6010E941501C701B601DF91CF911F91EE
:1004A0000F91FF90EF90DF90CF90BF90AF907F9033
:1004B0006F905F904F9008951F920F920FB60F921A
:1004C00011248F939F9381E08093860087E99AE3BC
:1004D0000197F1F700C000009F918F910F900FBE20
:1004E0000F901F9018950E94B1008FEF87BB18BA2C
:1004F00011BA82E085BF8BB780648BBF80E48ABF6E
:100500007894CFEF60E070E080E090E00E94E70038
:100510008FE690E00E94F20041E050E062E070E07F
:1005200084E00E9427030E94E00187E790E00E9498
:10053000F20060E070E081E090E00E94E7008CE76C
:1005400090E00E94F20082E090E00E94970189E72B
:1005500090E00E94F20081E890E00E94F20081E0C9
:1005600090E00E94970180918600882311F0C8BB1B
:1005700001C018BA2FE58AEE90E0215080409040EB
:10058000E1F700C00000BECF813091F028F082304A
:10059000B1F08330D9F01CC084EA86BF06B607FEEE
:1005A000FDCF63B984E886BF06B607FEFDCF10C055
:1005B00063B984EC86BF06B607FEFDCF09C063B9F8
:1005C00084E886BF06B607FEFDCF02C084E986BF79
:1005D00083B10895682F80E00E94C40261E081E049
:1005E0000E94C40266E482E00E94C40260E083E0EC
:1005F0000E94C4020895CF93C62F682F80E00E9406
:10060000C40262E081E00E94C4026C2F81E00E947B
:10061000C40260E082E00E94C40260E083E00E94C5
:10062000C402CF910895CF93C62F682F80E00E9417
:10063000C40263E081E00E94C4026C2F82E00E9449
:10064000C40260E083E00E94C402CF910895CF927B
:10065000DF92EF92FF920F931F93CF93DF937B0173
:100660006A01C82FD0E0CC0FDD1FDC2FD0690D2F21
:1006700010E0C8010E94EA02B601C8010E94FB0214
:10068000B701C8010E9413036D2F80E00E94C402CD
:1006900060E082E00E94C4026C2F616980E00E94E9
:1006A000C40260E081E00E94C402C82FD0E0DC2FC9
:1006B000CC2760E082E00E94C402C82B60E083E0A7
:1006C0000E94C402CE01DF91CF911F910F91FF9044
:1006D000EF90DF90CF9008955058BB27AA270E9433
:1006E00084030C948C040E947E0438F00E948504DC
:1006F00020F039F49F3F19F426F40C947B040EF497
:10070000E095E7FB0C947504E92F0E949D0458F3D3
:10071000BA17620773078407950720F079F4A6F5E6
:100720000C94BF040EF4E0950B2EBA2FA02D0B01F4
:10073000B90190010C01CA01A0011124FF27591B26
:1007400099F0593F50F4503E68F11A16F040A22F2C
:10075000232F342F4427585FF3CF4695379527959D
:10076000A795F0405395C9F77EF41F16BA0B620B9C
:10077000730B840BBAF09150A1F0FF0FBB1F661FE3
:10078000771F881FC2F70EC0BA0F621F731F841F26
:1007900048F4879577956795B795F7959E3F08F04C
:1007A000B0CF9395880F08F09927EE0F979587950E
:1007B00008950E94510408F481E008950E94E50321
:1007C0006894B1110C94C00408950E94A50488F0A7
:1007D0009F5798F0B92F9927B751B0F0E1F0660F05
:1007E000771F881F991F1AF0BA95C9F714C0B13046
:1007F00091F00E94BF04B1E008950C94BF04672FEC
:10080000782F8827B85F39F0B93FCCF38695779574
:100810006795B395D9F73EF490958095709561955D
:100820007F4F8F4F9F4F0895E89409C097FB3EF488
:1008300090958095709561957F4F8F4F9F4F99232D
:10084000A9F0F92F96E9BB279395F69587957795AB
:100850006795B795F111F8CFFAF4BB0F11F460FF6B
:100860001BC06F5F7F4F8F4F9F4F16C0882311F0C3
:1008700096E911C0772321F09EE8872F762F05C0D7
:10088000662371F096E8862F70E060E02AF09A9572
:10089000660F771F881FDAF7880F9695879597F967
:1008A0000895990F0008550FAA0BE0E8FEEF161601
:1008B0001706E807F907C0F012161306E407F50754
:1008C00098F0621B730B840B950B39F40A2661F0C8
:1008D000232B242B252B21F408950A2609F4A1406B
:1008E000A6958FEF811D811D089597F99F6780E878
:1008F00070E060E008959FEF80EC089500240A9472
:100900001616170618060906089500240A941216EA
:100910001306140605060895092E0394000C11F41D
:10092000882352F0BB0F40F4BF2B11F460FF04C0CA
:100930006F5F7F4F8F4F9F4F089557FD9058440F23
:10094000551F59F05F3F71F04795880F97FB991F2E
:1009500061F09F3F79F087950895121613061406EB
:10096000551FF2CF4695F1DF08C016161706180678
:10097000991FF1CF86957105610508940895E89453
:10098000BB2766277727CB0197F908950E94D904E2
:100990000C948C040E947E0438F00E94850420F0A0
:1009A000952311F00C9475040C947B0411240C9481
:1009B000C0040E949D0470F3959FC1F3950F50E011
:1009C000551F629FF001729FBB27F00DB11D639F01
:1009D000AA27F00DB11DAA1F649F6627B00DA11DA7
:1009E000661F829F2227B00DA11D621F739FB00D4D
:1009F000A11D621F839FA00D611D221F749F3327BD
:100A0000A00D611D231F849F600D211D822F762F55
:100A10006A2F11249F5750409AF0F1F088234AF032
:100A2000EE0FFF1FBB1F661F771F881F915050409E
:100A3000A9F79E3F510580F00C9475040C94C004F6
:100A40005F3FE4F3983ED4F3869577956795B79525
:100A5000F795E7959F5FC1F7FE2B880F911D96953F
:100A6000879597F90895FA01EE0FFF1F309621053B
:100A70003105A1F16115710561F48038BFE39B0771
:100A800049F168949038810561F08038BFEF9B0789
:100A900041F099234AF5FF3FE1053105210519F1A0
:100AA000E8940894E795D901AA2329F4AB2FBE2F27
:100AB000F85FD0F310C0FF5F70F4A695E0F7F73948
:100AC00050F019F0FF3A38F49F779F930DD00F90B4
:100AD00007FC9058089546F00C947B0460E070E0A9
:100AE00080E89FE308954FE79F775F934F933F938D
:100AF0002F930E947A062F913F914F915F910E9410
:100B0000C6040C9496050E94180630F09F3710F426
:100B10000C94C0040C94C8050C94E30529F416F059
:100B20000C9475040C94BF040C947B040E94A504DF
:100B3000A8F39638A0F707F80F92E8942BE33AEA67
:100B400048EB5FE70E94DC040F920F920F924DB7C3
:100B50005EB70F920E94C206E4E5F0E00E94F10544
:100B60004F915F91EF91FF91E595EE1FFF1F49F0C7
:100B7000FE57E0684427EE0F441FFA95E1F74195D0
:100B8000550B0E943C060F9007FE0C94300608950A
:100B9000882371F4772321F09850872B762F07C094
:100BA000662311F499270DC09051862B70E060E008
:100BB0002AF09A95660F771F881FDAF7880F9695A7
:100BC000879597F908959F3F31F0915020F48795CC
:100BD00077956795B795880F911D9695879597F9A5
:100BE0000895DF93CF931F930F93FF92EF92DF92BD
:100BF0007B018C01689406C0DA2EEF010E94D904B3
:100C0000FE01E894A5912591359145915591A6F362
:100C1000EF010E948403FE019701A801DA9469F7AD
:100C2000DF90EF90FF900F911F91CF91DF9108958A
:100C30000E94A504A0F0BEE7B91788F4BB279F382F
:100C400060F41616B11D672F782F8827985FF7CFAD
:100C5000869577956795B11D93959639C8F3089554
:100C60009B01AC0160E070E080E89FE30C94F60625
:100C70000C9475040C94E3050E94A504D8F3992301
:100C8000C9F3940F511DA3F39150504094F059F0C3
:100C9000882332F0660F771F881F91505040C1F7AC
:100CA0009E3F51052CF7880F911D9695879597F9D2
:100CB00008955F3FACF0983E9CF0BB2786957795F2
:100CC0006795B79508F4B1609395C1F7BB0F58F7D6
:100CD00011F460FFE8CF6F5F7F4F8F4F9F4FE3CFDF
:100CE0000C94C00416F00C94E3050C947B046894F7
:100CF0000C9475040E94A504A8F39923C1F3AEF3E4
:100D0000DF93CF931F930F93FF92C92FDD27882383
:100D10002AF02197660F771F881FDAF720E030E06E
:100D200040E85FEB9FE3883920F0803E38F0219661
:100D30008F770E946D03ECE7F0E004C00E946D0322
:100D4000E9EAF0E00E94F1058B01BE01EC01FB2E07
:100D50006F5771097595771F880B990B0E941604C0
:100D600028E132E741E35FE30E94D904AF2D980107
:100D7000AE01FF900F911F91CF91DF910E948403EC
:100D80000C948C04FA01DC01AA0FBB1F9B01AC017F
:100D9000BF5728F4222733274427507820C0B75163
:100DA00090F4AB2F0024469537952795011CA39509
:100DB000D2F3002071F0220F331F441FB395DAF3F2
:100DC0000ED00C946C0361307105A0E88A07B94617
:100DD00030F49B01AC0166277727882790783096FE
:100DE00021F0208331834283538308950E940A07B0
:100DF0000C948C040E94850458F00E947E0440F0FC
:100E000029F45F3F29F00C94750451110C94C0042F
:100E10000C947B040E949D0468F39923B1F355233D
:100E200091F3951B550BBB27AA27621773078407FD
:100E300038F09F5F5F4F220F331F441FAA1FA9F393
:100E400035D00E2E3AF0E0E832D091505040E69581
:100E5000001CCAF72BD0FE2F29D0660F771F881FE2
:100E6000BB1F261737074807AB07B0E809F0BB0BD5
:100E7000802DBF01FF2793585F4F3AF09E3F5105E9
:100E800078F00C9475040C94C0045F3FE4F3983E32
:100E9000D4F3869577956795B795F7959F5FC9F7D2
:100EA000880F911D9695879597F90895E1E0660F53
:100EB000771F881FBB1F621773078407BA0720F0CC
:100EC000621B730B840BBA0BEE1F88F7E095089535
:100ED000AEE0B0E0EEE6F7E00C94290A0D891E8939
:100EE00086E08C831A8309838FEF9FE79E838D832F
:100EF000AE01475E5F4F6F89788DCE0101960E94EB
:100F00008A07EF81F885E00FF11F10822E96E4E04A
:100F10000C94450AABE0B0E0E0E9F7E00C941B0A62
:100F20006C017B018A01FC0117821682838181FF9B
:100F3000CCC1CE0101963C01F6019381F70193FDEE
:100F4000859193FF81917F01882309F4BAC185328D
:100F500039F493FD859193FF81917F01853229F4C6
:100F6000B60190E00E948109E7CF912C212C312C11
:100F7000FFE1F315D8F08B3279F038F4803279F054
:100F80008332A1F4232D20611DC08D3261F08033A6
:100F900069F4232D216016C0832D8260382EE32D45
:100FA000E4603E2E2AC0F32DF8601DC037FC2DC032
:100FB00020ED280F2A3040F08E32B9F436FC81C182
:100FC000232D2064322E19C036FE06C08AE0989E7A
:100FD000200D1124922E11C0EAE02E9E200D112426
:100FE000222EF32DF0623F2E08C08C3621F4832D83
:100FF0008068382E02C0883641F4F70193FD859150
:1010000093FF81917F018111B3CF982F9F7D9554DC
:10101000933028F40C5F1F4F9FE399830DC08336F4
:1010200031F0833771F0833509F059C021C0F801E0
:10103000808189830E5F1F4F88248394912C5301F4
:1010400013C02801F2E04F0E511CF801A080B180BE
:1010500036FE03C0692D70E002C06FEF7FEFC5015F
:101060000E9476094C018201F32DFF773F2E16C0B6
:10107000280122E0420E511CF801A080B18036FE0A
:1010800003C0692D70E002C06FEF7FEFC5010E94C1
:101090006B094C01F32DF0683F2E820133FC1BC01D
:1010A000822D90E088169906B0F4B60180E290E0B7
:1010B0000E9481092A94F4CFF50137FC859137FE0F
:1010C00081915F01B60190E00E94810921102A946C
:1010D00021E0821A91088114910471F7E8C08436E6
:1010E00011F0893641F5F80137FE07C06081718142
:1010F000828193810C5F1F4F08C060817181072E30
:10110000000C880B990B0E5F1F4FF32DFF763F2EBF
:1011100097FF09C090958095709561957F4F8F4F8F
:101120009F4FF0683F2E2AE030E0A3010E94BD09E6
:10113000882E861845C0853731F4232D2F7EB22E98
:101140002AE030E025C0932D997FB92E8F36C1F06B
:1011500018F4883579F0B5C0803719F0883721F058
:10116000B0C0E92FE061BE2EB4FE0DC0FB2DF460CF
:10117000BF2E09C034FE0AC0292F2660B22E06C039
:1011800028E030E005C020E130E002C020E132E09C
:10119000F801B7FE07C060817181828193810C5F85
:1011A0001F4F06C06081718180E090E00E5F1F4F8D
:1011B000A3010E94BD09882E8618FB2DFF773F2EC4
:1011C00036FE0DC0232D2E7FA22E891458F434FE36
:1011D0000BC032FC09C0832D8E7EA82E05C0B82C12
:1011E000A32C03C0B82C01C0B92CA4FE0FC0FE0173
:1011F000E80DF11D8081803321F49A2D997EA92E6E
:1012000009C0A2FE06C0B394B39404C08A2D8678A8
:1012100009F0B394A3FC11C0A0FE06C0B21488F478
:10122000280C922C9B180EC0B21460F4B60180E218
:1012300090E00E948109B394F7CFB21418F42B18F0
:1012400002C0982C212CA4FE10C0B60180E390E0CF
:101250000E948109A2FE17C0A1FC03C088E790E0AC
:1012600002C088E590E0B6010CC08A2D867859F05E
:10127000A1FE02C08BE201C080E2A7FC8DE2B601B4
:1012800090E00E948109891438F4B60180E390E06F
:101290000E9481099A94F7CF8A94F301E80DF11D19
:1012A0008081B60190E00E9481098110F5CF222053
:1012B00009F442CEB60180E290E00E9481092A94AE
:1012C000F6CFF6018681978102C08FEF9FEF2B96B4
:1012D000E2E10C94370AFC01059061507040011066
:1012E000D8F7809590958E0F9F1F0895FC0161504F
:1012F000704001900110D8F7809590958E0F9F1F38
:1013000008950F931F93CF93DF93FB01238121FD5A
:1013100003C08FEF9FEF2CC022FF16C0468157817C
:10132000248135814217530744F4A081B1819D0186
:101330002F5F3F4F318320838C93268137812F5F2E
:101340003F4F3783268314C08B01EC01FB010084DF
:10135000F185E02D0995892BE1F6D80116968D913E
:101360009C911797019617969C938E931697CE0192
:10137000DF91CF911F910F910895FA01AA2728308C
:1013800051F1203181F1E8946F936E7F6E5F7F4F52
:101390008F4F9F4FAF4FB1E03ED0B4E03CD0670FCE
:1013A000781F891F9A1FA11D680F791F8A1F911D21
:1013B000A11D6A0F711D811D911DA11D20D009F471
:1013C00068943F912AE0269F11243019305D3193B3
:1013D000DEF6CF010895462F4770405D4193B3E09C
:1013E0000FD0C9F7F6CF462F4F70405D4A3318F043
:1013F000495D31FD4052419302D0A9F7EACFB4E0F4
:10140000A6959795879577956795BA95C9F70097AB
:101410006105710508959B01AC010A2E069457954C
:10142000479537952795BA95C9F7620F731F841FA3
:10143000951FA01D08952F923F924F925F926F9239
:101440007F928F929F92AF92BF92CF92DF92EF9254
:10145000FF920F931F93CF93DF93CDB7DEB7CA1BD5
:10146000DB0B0FB6F894DEBF0FBECDBF09942A8800
:10147000398848885F846E847D848C849B84AA84A8
:10148000B984C884DF80EE80FD800C811B81AA8135
:10149000B981CE0FD11D0FB6F894DEBF0FBECDBF00
:0814A000ED010895F894FFCF5F
:1014A8002D00257325642E253032640025640054F0
:1014B800656D70203D20003B202020004D41583DA7
:0614C800004D494E3D00FD
:00000001FF
