:100000000C942A000C9434000C9434000C943400AA
:100010000C9434000C9434000C9434000C94340090
:100020000C9434000C9434000C9434000C94340080
:100030000C9434000C9434000C9434000C94340070
:100040000C9434000C9434000C9434000C94340060
:100050000C94340011241FBECFE5D8E0DEBFCDBF25
:100060000E949E000C94B0000C9400009BB3907C06
:100070009BBB8111DC9A8BB3962F92959F70892B35
:100080008BBBDD9A8DE08A95F1F70000DD988DE05D
:100090008A95F1F700008BB3807F8BBB8BB36F70B9
:1000A000682B6BBBDD9A8DE08A95F1F70000DD9837
:1000B0008DE08A95F1F7000008958AB38F638ABBBB
:1000C00063E380E00E94360087EA91E60197F1F74A
:1000D00000C0000062E380E00E94360087EA91E6FB
:1000E0000197F1F700C0000068E280E00E9436004E
:1000F00087EA91E60197F1F700C0000061E080E037
:100100000E94360087EA91E60197F1F700C00000EF
:100110006CE080E00E94360087EA91E60197F1F7F3
:1001200000C000000895811104C060680E9436007C
:100130000895606C80E00E94360008950E945D0082
:1001400060E070E080E090E00E9493002FE986E894
:1001500091E0215080409040E1F700C00000F0CFD6
:04016000F894FFCF41
:00000001FF
