:100000000C942A000C943F000C943F000C943F0089
:100010000C943F000C943F000C943F000C943F0064
:100020000C943F000C943F000C943F000C943F0054
:100030000C943F000C943F000C943F000C943F0044
:100040000C943F000C943F000C943F000C943F0034
:100050000C943F0011241FBECFE5D8E0DEBFCDBF1A
:1000600010E0A0E6B0E0EAE7F1E002C005900D92F2
:10007000A036B107D9F70E94A9000C94BB000C94DC
:1000800000009BB3907C9BBB8111DC9A8BB3962FB5
:1000900092959F70892B8BBBDD9A8DE08A95F1F745
:1000A0000000DD988DE08A95F1F700008BB3807F2A
:1000B0008BBB8BB36F70682B6BBBDD9A8DE08A9521
:1000C000F1F70000DD988DE08A95F1F700000895C2
:1000D0008AB38F638ABB63E380E00E94410087EAB2
:1000E00091E60197F1F700C0000062E380E00E9412
:1000F000410087EA91E60197F1F700C0000068E24D
:1001000080E00E94410087EA91E60197F1F700C084
:10011000000061E080E00E94410087EA91E60197DB
:10012000F1F700C000006CE080E00E94410087EA27
:1001300091E60197F1F700C000000895811104C015
:1001400060680E9441000895606C80E00E94410058
:1001500008950E94680060E070E080E090E00E94F6
:100160009E002FE986E891E0215080409040E1F721
:0A01700000C00000F0CFF894FFCFAC
:00000001FF
