:100000000C942A000C9447000C9447000C94470071
:100010000C9447000C9447000C9447000C94A703E1
:100020000C94F5080C9447000C9447000C9447007E
:100030000C9447000C9447000C9447000C94470024
:100040000C9447000C9447000C9447000C94470014
:100050000C94470011241FBECFE5D8E0DEBFCDBF12
:1000600010E0A0E6B0E0E4E3FDE102C005900D92EF
:10007000AA3DB107D9F727E0AAEDB0E001C01D9273
:10008000A537B207E1F70E94D6080C94980E0C949D
:100090000000E5E4F7E020E330E03183208381E3F2
:1000A00090E09383828380E290E0958384834AE4A6
:1000B00050E05783468341E650E0518740874EE643
:1000C00050E0538742879587848782E390E0978743
:1000D0008687318B208B938B828B84E390E0958B8A
:1000E000848B0895E091DA00F091DB00EE0FFF1FA2
:1000F000E858FF4FA081B181E5E4F7E08C9190E0F2
:100100009783868311968C91119790E091878087D1
:1001100012968C9190E0938782870895E5E2F7E04C
:1001200025E437E080E290E081939193E217F307B2
:10013000D9F70895E5E4F7E0880F991FDC01AB5D7E
:10014000B84F2BE537E0819191918D939D93E21704
:10015000F307C9F708950F931F93CF93DF9360E0E0
:1001600081E00E94CB08C5E2D7E005E417E0688192
:10017000229681E00E946E08C017D107C1F7DF9177
:10018000CF911F910F910895CF93DF93EC010E94BF
:100190008E00CE010E949A000E94AB00DF91CF91A9
:1001A0000895CF93DF93CDB7DEB727970FB6F894B6
:1001B000DEBF0FBECDBFFE01339683E0DF011D928F
:1001C0008A95E9F7E5E4F7E08685898380898A8363
:1001D00082898B8384898C831D824AE050E0BE0132
:1001E0006A5F7F4FCE0101960E94400AEE81FF8137
:1001F0002081211102C0CB0102C080E090E027964F
:100200000FB6F894DEBF0FBECDBFDF91CF9108953A
:100210000E94D1009C0183709927892BA9F4C90100
:1002200064E670E00E94180A892B59F4C90160E95C
:1002300071E00E94180A21E0892B09F020E0822F4A
:1002400001C081E08170089580E008958091DA0016
:100250009091DB00019721F40E94080181110BC0ED
:10026000E091DA00F091DB00EE0FFF1FE05AFF4F44
:1002700080819181089581E990E008950F931F9303
:10028000CF93DF9300D000D01F92CDB7DEB70E948E
:100290002601E5E4F7E0228133812F5F3F4F33836E
:1002A0002283FC01418150E0421753070CF056C0F5
:1002B000808190E0409145075091460748175907C3
:1002C00009F04CC0E5E4F7E080E390E0918380839F
:1002D00081E390E0938382838091DA009091DB0048
:1002E00001968C30910529F09093DB008093DA0021
:1002F00032C01092DB001092DA000E94D1008C0113
:100300000F5F1F4F1F930F9384E990E09F938F938C
:10031000CE0101969F938F930E945F0BE5E4F7E077
:10032000898190E0978786878A8190E0918B808B86
:100330008B8190E0938B828B8C8190E0958B848B6A
:100340000F900F900F900F900F900F900031174269
:1003500014F00E9449000E9472000EC02A33310539
:100360005CF0E5E4F7E080819181019691838083E0
:1003700080E390E0938382830F900F900F900F9013
:100380000F90DF91CF911F910F910895FC0103967B
:10039000928381832FEF3FEF34832383968385837A
:1003A0009087878310820895FC0111861086089536
:1003B000CF93DF939C01FB01DC011196CD91DC9181
:1003C0001297D383C2838C819D81958384838C8192
:1003D0009D81DC0113967C936E9312977D836C83D1
:1003E00031872087F90180818F5F8083DF91CF91F2
:1003F0000895CF93DF93EB01488159814F3F2FEF51
:10040000520721F4FC01A781B0850DC0DC011396D1
:1004100001C0DF011296ED91FC911397208131818B
:1004200042175307B0F71296ED91FC911397FB8397
:10043000EA83D583C483BD83AC831396DC93CE93C8
:10044000129799878887FC0120812F5F2083DF9195
:10045000CF910895CF93DF93FC01A085B185C28130
:10046000D381848195819D838C83C481D581828150
:1004700093819B838A8311968D919C911297E817A3
:10048000F90731F48481958112969C938E9311978C
:10049000118610868C9181508C938C91DF91CF9135
:1004A000089531E1FC013083319722E220833197B6
:1004B000A3E3A083319760833197708331971082D3
:1004C000319760E8608331971082319762E06083F2
:1004D000319763E06083319764E06083319765E032
:1004E0006083319766E06083319767E0608331977E
:1004F00068E06083319769E06083319760E16083F1
:1005000031973083319732E13083319733E1308353
:10051000319734E13083319735E13083319736E1DB
:100520003083319737E13083319738E13083319729
:1005300039E13083319730E23083319731E23083D3
:1005400031972083319723E220833197408331977D
:100550005083319726E22083319727E22083319719
:1005600028E22083319729E22083319720E32083FA
:10057000319721E32083869708951BBC8EE08ABDC6
:100580008BE08EBD89B7806189BFA0911F07B091B4
:100590002007CD91CDBFDD91DEBFFF91EF91DF91BF
:1005A000CF91BF91AF919F918F917F916F915F910B
:1005B0004F913F912F911F910F91FF90EF90DF90FE
:1005C000CF90BF90AF909F908F907F906F905F90F3
:1005D0004F903F902F901F900F900FBE0F90089557
:1005E00081E008950F920FB6F8940F921F92112494
:1005F0002F923F924F925F926F927F928F929F9233
:10060000AF92BF92CF92DF92EF92FF920F931F9320
:100610002F933F934F935F936F937F938F939F930A
:10062000AF93BF93CF93DF93EF93FF93A0911F07F7
:10063000B09120070DB60D920EB60D920E940808DB
:10064000A0911F07B0912007CD91CDBFDD91DEBFF6
:10065000FF91EF91DF91CF91BF91AF919F918F91DA
:100660007F916F915F914F913F912F911F910F91CA
:10067000FF90EF90DF90CF90BF90AF909F908F90C2
:100680007F906F905F904F903F902F901F900F90B2
:100690000FBE0F9008950F920FB6F8940F921F920D
:1006A00011242F923F924F925F926F927F928F927E
:1006B0009F92AF92BF92CF92DF92EF92FF920F93F1
:1006C0001F932F933F934F935F936F937F938F93DA
:1006D0009F93AF93BF93CF93DF93EF93FF93A0913B
:1006E0001F07B09120070DB60D920EB60D920E9415
:1006F000BA0681110E940808A0911F07B091200737
:10070000CD91CDBFDD91DEBFFF91EF91DF91CF9114
:10071000BF91AF919F918F917F916F915F914F9119
:100720003F912F911F910F91FF90EF90DF90CF900D
:10073000BF90AF909F908F907F906F905F904F9001
:100740003F902F901F900F900FBE0F9008950E9422
:100750004B031895CF93DF93DC01E4EEF0E001C08A
:10076000F901208131812A173B07D0F382819381DF
:10077000AF01480F591FA417B50749F412964D91C0
:100780005C911397840F951F93838283DF011296E8
:100790008D919C911397ED01C80FD91F2C173D0720
:1007A000D9F42091E2003091E300C217D30781F021
:1007B0002A813B81820F931F13969C938E931297ED
:1007C000C081D1818881998111969C938E9307C0B5
:1007D0001196DC93CE9303C011963C932E93AE17E3
:1007E000BF0711F0B183A083DF91CF910895CF921D
:1007F000DF92EF92FF920F931F93CF93DF93EC0161
:100800000E94B4068091E2009091E300892B41F5AB
:10081000E4EEF0E0A8EEB0E0B183A0831382128290
:10082000E0ECF6E0F093E300E093E2001382128242
:100830001182108288ED95E013969C938E93129707
:10084000ED93FC939093DF008093DE009093E100A2
:100850008093E00080E090E89093DD008093DC00DE
:10086000E090DC00F090DD00C7018C239D23892BF4
:1008700009F05FC0209709F45FC0AE014C5F5F4F85
:1008800009F45DC00091E0001091E1000417150724
:1008900008F458C0C091E400D091E500E4EEF0E027
:1008A00002C0FE01E9012A813B812417350728F4A3
:1008B0002881398121153105A1F78091E2009091BD
:1008C000E300C817D90709F440C0C080D18084E094
:1008D000C80ED11C88819981918380832A813B81B4
:1008E000241B350B2930310550F0CE01840F951FA4
:1008F000FC01338322835B834A830E94AA038A819B
:100900009B81081B190B1093E1000093E0002091DC
:10091000DE003091DF000217130720F41093DF0090
:100920000093DE00E82AF92AFB82EA821982188203
:100930000EC0C12CD12C0BC0C12CD12C08C0C12C95
:10094000D12C05C0C12CD12C02C0C12CD12C0E94AD
:100950007507C601DF91CF911F910F91FF90EF9026
:10096000DF90CF900895CF93DF93009759F1FC016A
:100970003497228133814091DC005091DD00B90130
:1009800064237523672BF1F060817181672BD1F4AB
:10099000EF014095509524233523338322830E9411
:1009A000B4062091E0003091E1008A819B81820FA2
:1009B000931F9093E1008093E000CE010E94AA0370
:1009C0000E947507DF91CF910895E091E706F091BD
:1009D000E8068081811107C08FEF9FEF9093C806D2
:1009E0008093C7060895E091E706F091E806058038
:1009F000F681E02D0680F781E02D8281938190932E
:100A0000C8068093C70608950F931F93CF93DF9373
:100A1000EC010091CF061091D00680911F079091B4
:100A2000200702960E942A02C00FD11FE0911F07E3
:100A3000F0912007D383C283C017D10768F4609177
:100A40001F07709120078091E5069091E6066E5F82
:100A50007F4F0E94F90117C060911F077091200716
:100A60008091E7069091E8066E5F7F4F0E94F90142
:100A70008091C7069091C806C817D90720F4D09373
:100A8000C806C093C706DF91CF911F910F910895BB
:100A900003ED16E00F2EFBEFEF2EF6E0FF2EF02D0C
:100AA0008091D206882329F10FB6F8940F92D801CD
:100AB0001596ED91FC911697C681D781CE010296CD
:100AC0000E942A028091D10681508093D1068091A4
:100AD000D20681508093D2060F900FBE8F89988DD9
:100AE0000E94B304CE010E94B3048091D20681110A
:100AF000DBCFF7018081823010F00E94F2020E9469
:100B0000E608CECF4F925F926F927F928F929F9224
:100B1000AF92BF92CF92DF92EF92FF920F93CF935B
:100B2000DF934C016B015A012901CA010E94F703AE
:100B30003C01892B09F4DDC086E290E00E94F703B6
:100B4000EC01892B71F0788E6F8A81E0A81AB108C8
:100B5000A60CB71CD6018C91898F8C91811105C090
:100B600018C0C3010E94B304C4C0AE01465E5F4F0B
:100B7000F6013196B8E0CB0ED11CCF012191DA01FC
:100B80002D93AD01DC018C91882319F0EC15FD0546
:100B9000A1F718A2043008F003E00E8B6E01B2E05A
:100BA000CB0ED11CC6010E94D401CE010C960E942E
:100BB000D401D987C88784E090E0801B91099D8784
:100BC0008C87DB8BCA8B19A21AA21BA21CA21DA2A6
:100BD000A201B401C5010E94510299838883E114E6
:100BE000F10419F0F701D183C0830FB6F8940F9286
:100BF0008091D1068F5F8093D10680911F079091DD
:100C00002007892BA9F5D0932007C0931F07809157
:100C1000D1068130E9F58BEF96E00E94C60184E0B1
:100C200097E00E94C6018DE097E00E94C60186E130
:100C300097E00E94C60182EF96E00E94C60189EE0D
:100C400096E00E94C6018CED96E00E94C60183EDFD
:100C500096E00E94C60182EF96E09093E8068093AA
:100C6000E70689EE96E09093E6068093E50610C0CD
:100C70008091CD0681110CC0E0911F07F0912007F3
:100C800096898E89891720F0D0932007C0931F077B
:100C90008091C9068F5F8093C9068E899091CE0698
:100CA000981710F48093CE0690E09C01220F331F1A
:100CB000220F331F220F331F820F931FB60185505F
:100CC000994F0E94D8010F900FBE8091CD068823C6
:100CD00061F0E0911F07F091200796898E8998179F
:100CE00030F40E94F20281E005C081E003C081E09F
:100CF00001C08FEFDF91CF910F91FF90EF90DF90C8
:100D0000CF90BF90AF909F908F907F906F905F90AB
:100D10004F900895EF92FF920F930F2EF5ECEF2E68
:100D2000F6E0FF2EF02D00E020E030E045E550E059
:100D300060ED70E088E495E00E948205813081F4E6
:100D4000F8948FEF9FEF9093C8068093C70681E0D9
:100D50008093CD061092D0061092CF060E94BD025D
:100D60000F91FF90EF9008958091C4068F5F80935C
:100D7000C4060895CF92DF92EF92FF920F931F93D4
:100D8000CF93DF938091C406811199C0E090CF0684
:100D9000F090D0068FEFE81AF80AF092D006E092B1
:100DA000CF06E114F104B9F48091E7069091E806CA
:100DB0002091E5063091E6063093E8062093E70699
:100DC0009093E6068093E5068091CA068F5F809334
:100DD000CA060E94E5048091C7069091C806E816ED
:100DE000F90610F4D12C53C0D12CCC24C394E0913B
:100DF000E706F091E8068081811107C08FEF9FEF31
:100E00009093C8068093C70642C0E091E706F09130
:100E1000E8060580F681E02DC681D7818A819B8115
:100E2000E816F90628F49093C8068093C7062FC0E9
:100E30008E010E5F1F4FC8010E942A028C899D8976
:100E4000892B21F0CE010C960E942A028E89909166
:100E5000CE06981710F48093CE0690E09C01220FE6
:100E6000331F220F331F220F331F820F931FB8012E
:100E70008550994F0E94D801E0911F07F0912007FB
:100E80009E898689981708F4B2CFDC2CB0CFE09108
:100E90001F07F0912007868990E0FC01EE0FFF1FED
:100EA000EE0FFF1FEE0FFF1F8E0F9F1FFC01E5507F
:100EB000F94F8081823048F0DD24D39406C08091C0
:100EC000CC068F5F8093CC06D12C8091CB068823F3
:100ED00011F0DD24D3948D2DDF91CF911F910F91CF
:100EE000FF90EF90DF90CF900895DF92EF92FF9206
:100EF0000F931F93CF93DF930FB6F8940F928091C7
:100F0000C40681508093C4068091C40681115FC0DD
:100F10008091D106811133C05DC0D7011596ED9146
:100F2000FC911697C681D781CE010C960E942A02A9
:100F30008E010E5F1F4FC8010E942A028E89909178
:100F4000CE06981710F48093CE0690E09C01220FF5
:100F5000331F220F331F220F331F820F931FB8013D
:100F60008550994F0E94D801E0911F07F09120070A
:100F70009E898689981768F0D092CB060AC0C0E097
:100F8000D0E00F2EFCEDEF2EF6E0FF2EF02DDD244D
:100F9000D394F70180818111C0CFCD2B11F00E9435
:100FA000E504C091CC06CC2351F0D1E00E94BA06F2
:100FB0008111D093CB06C150C9F71092CC06809115
:100FC000CB06882331F00E94F20281E003C080E06A
:100FD00001C080E00F900FBEDF91CF911F910F9164
:100FE000FF90EF90DF900895CF93DF93EC01892B72
:100FF00051F00E94B40660E0CE010E9404050E94F8
:101000007507811102C00E94F202DF91CF9108950D
:101010008091C406882321F081E08093CB06089557
:101020001092CB062091CE06822F90E0FC01EE0FAD
:10103000FF1FEE0FFF1FEE0FFF1FE80FF91FE55018
:10104000F94F3081311111C02150822F90E0FC0105
:10105000EE0FFF1FEE0FFF1FEE0FFF1FE80FF91F30
:10106000E550F94F3081332379F3AC01440F551F1C
:10107000440F551F440F551F480F591FDA01A55043
:10108000B94F1196ED91FC9112970280F381E02DFA
:101090001296FC93EE9311974250594FE417F507BF
:1010A00029F442815381FD0152834183FC01EE0FFB
:1010B000FF1FEE0FFF1FEE0FFF1F8E0F9F1FFC0184
:1010C000E550F94F0180F281E02D86819781909360
:1010D000200780931F072093CE0608959BB3907C32
:1010E0009BBB8111DC9A8BB3962F92959F70892BB5
:1010F0008BBBDD9A8DE08A95F1F70000DD988DE0DD
:101100008A95F1F700008BB3807F8BBB8BB36F7038
:10111000682B6BBBDD9A8DE08A95F1F70000DD98B6
:101120008DE08A95F1F7000008958AB38F638ABB3A
:1011300063E380E00E946E0887EA91E60197F1F789
:1011400000C0000062E380E00E946E0887EA91E63A
:101150000197F1F700C0000068E280E00E946E088D
:1011600087EA91E60197F1F700C0000061E080E0B6
:101170000E946E0887EA91E60197F1F700C000002F
:101180006CE080E00E946E0887EA91E60197F1F733
:1011900000C000000895811104C060680E946E08BC
:1011A0000895606C80E00E946E080895E12CF12C97
:1011B00001E020E030E045E550E065ED70E08FE6CD
:1011C00099E00E9482050E948A06FFCF08951DBC07
:1011D0001CBC8EB583608EBD89B7886089BF8DE3E6
:1011E00089BD89E088BD789408951F920F920FB64B
:1011F0000F9211242F933F934F935F936F937F939D
:101200008F939F93AF93BF93EF93FF930E94D30964
:101210001DBC1CBCFF91EF91BF91AF919F918F912D
:101220007F916F915F914F913F912F910F900FBEE2
:101230000F901F90189580B38F3B51F08F3D19F0A0
:101240008F37A1F40CC010922207109221071AC008
:1012500081E090E0909322078093210718C082E0FC
:1012600090E0909322078093210716C08091210778
:10127000909122078130910551F08230910561F003
:10128000892B71F486E990E00E94F40709C084EF8D
:1012900091E00E94F40704C088EE93E00E94F407F6
:1012A00080912307909124078530910511F00097D4
:1012B00031F43091900021E0232720939000209179
:1012C0009000222331F00197909324078093230705
:1012D00008950196909324078093230708950E9410
:1012E000E7080E9495080E94C6090E9449000E94D2
:1012F0001B0980912307909124070E94B5098091D2
:101300002307909124070E94C40084E690E00E9485
:10131000F407EDCFEBE5F7E02BE637E080E28193D1
:10132000E217F307E1F70895EBE6F7E0DC01A25AD4
:10133000B84F23E737E081918D93E217F307D9F790
:1013400008950F931F93CF93DF93CBE5D7E00BE680
:1013500017E0699181E00E946E08C017D107C9F7B4
:10136000DF91CF911F910F910895CF93DF93EC01FF
:1013700060E880E00E946E080E948A09CE010E9407
:1013800094090E94A109DF91CF910895EBE6F7E05F
:1013900080E3808381839AE392838383848395832C
:1013A000868387830895809172078F5F8A3318F44C
:1013B000809372070895EBE6F7E080E387838681E8
:1013C0008F5F863318F4809371070895EBE6F7E09A
:1013D00080E3868384818F5F8A3318F480936F075C
:1013E0000895EBE6F7E080E3848383818F5F8633A3
:1013F00018F480936E070895EBE6F7E080E38383AB
:1014000081818F5F81839081923331F4843321F421
:101410000E94C6090E943E0180916C078A3338F011
:10142000EBE6F7E080E3818380818F5F808308951E
:1014300097FB072E16F4009407D077FD09D00E9481
:101440002C0A07FC05D03EF4909581959F4F089596
:10145000709561957F4F0895AA1BBB1B51E107C092
:10146000AA1FBB1FA617B70710F0A61BB70B881F34
:10147000991F5A95A9F780959095BC01CD010895C3
:10148000A0E0B0E0E6E4FAE00C94530E5C016B01DE
:101490007A016115710519F0FB0191838083E114D4
:1014A000F10429F0C7010297839708F0E5C0E50130
:1014B0002196F5011081812F90E00E94560B892B17
:1014C00011F05E01F4CF1D3229F42196F50111814E
:1014D00001E007C01B3221F4E5012296F5011181DC
:1014E00000E0E114F10409F1F0E1EF16F10429F450
:1014F0003FC010E3E114F10421F128E0E216F10409
:1015000001F154F4E2E0EE16F10421F5812C912C66
:10151000A12CB0E4BB2E3EC0FAE0EF16F10439F086
:1015200020E1E216F104B1F430C0103319F1FAE011
:10153000EF2EF12CACEC8A2E982CA82CACE0BA2E15
:1015400029C078E0E72EF12C812C912CA12CE0E130
:10155000BE2E20C060E070E080E090E897010F2C84
:10156000000C440B550B0E94250E49015A0112C074
:10157000103359F488818F7D883509F0BACF1981ED
:101580002296026080E1E82EF12C812C912CA12C76
:1015900068E0B62E40E060E070E0CB0127010F2C40
:1015A000000C66087708FE0150ED352E310E29E05B
:1015B000231570F42FEB210F2A3118F439EC332E58
:1015C00006C02FE9210F2A3118F529EA322E310EF3
:1015D000232D30E02E153F05DCF447FD16C086169E
:1015E0009706A806B90670F0A30192010E94150E95
:1015F000630D711D811D911D61307105810520E80C
:10160000920710F04FEF01C041E021961081CBCF3F
:10161000202F2170C114D10471F0442329F02197A7
:10162000F601D183C08307C001FF19C02297F601DC
:10163000D183C08314C047FF12C0222329F060E089
:1016400070E080E090E804C06FEF7FEF8FEF9FE7DE
:1016500022E230E0309374072093730709C02223FD
:1016600081F090958095709561957F4F8F4F9F4F3A
:10167000462F372F282F12C040E030E020E090E0C6
:101680000DC097FFF5CF82E290E0909374078093AE
:1016900073076FEF7FEF8FEF9FE7EACF642F732F12
:1016A000822FCDB7DEB7E1E10C946F0E91110C944F
:1016B000620D803219F089508550C8F70895AEE068
:1016C000B0E0E5E6FBE00C94600E0D891E8986E033
:1016D0008C831A8309838FEF9FE79E838D83AE01EE
:1016E000475E5F4F6F89788DCE0101960E94810B16
:1016F000EF81F885E00FF11F10822E96E4E00C9444
:101700007C0EABE0B0E0E7E8FBE00C94520E6C011D
:101710007B018A01FC0117821682838181FFCCC183
:10172000CE0101963C01F6019381F70193FD85916D
:1017300093FF81917F01882309F4BAC1853239F47E
:1017400093FD859193FF81917F01853229F4B60144
:1017500090E00E947B0DE7CF912C212C312CFFE1F2
:10176000F315D8F08B3279F038F4803279F0833287
:10177000A1F4232D20611DC08D3261F0803369F406
:10178000232D216016C0832D8260382EE32DE46066
:101790003E2E2AC0F32DF8601DC037FC2DC020ED71
:1017A000280F2A3040F08E32B9F436FC81C1232D47
:1017B0002064322E19C036FE06C08AE0989E200DA5
:1017C0001124922E11C0EAE02E9E200D1124222E0B
:1017D000F32DF0623F2E08C08C3621F4832D8068F3
:1017E000382E02C0883641F4F70193FD859193FFAE
:1017F00081917F018111B3CF982F9F7D95549330B4
:1018000028F40C5F1F4F9FE399830DC0833631F09E
:10181000833771F0833509F059C021C0F801808108
:1018200089830E5F1F4F88248394912C530113C02A
:101830002801F2E04F0E511CF801A080B18036FE65
:1018400003C0692D70E002C06FEF7FEFC5010E94F9
:10185000700D4C018201F32DFF773F2E16C0280139
:1018600022E0420E511CF801A080B18036FE03C078
:10187000692D70E002C06FEF7FEFC5010E94650D1A
:101880004C01F32DF0683F2E820133FC1BC0822DEA
:1018900090E088169906B0F4B60180E290E00E94CC
:1018A0007B0D2A94F4CFF50137FC859137FE8191A9
:1018B0005F01B60190E00E947B0D21102A9421E087
:1018C000821A91088114910471F7E8C0843611F0EE
:1018D000893641F5F80137FE07C060817181828148
:1018E00093810C5F1F4F08C060817181072E000C2F
:1018F000880B990B0E5F1F4FF32DFF763F2E97FF3E
:1019000009C090958095709561957F4F8F4F9F4F3F
:10191000F0683F2E2AE030E0A3010E94B70D882E28
:10192000861845C0853731F4232D2F7EB22E2AE04C
:1019300030E025C0932D997FB92E8F36C1F018F471
:10194000883579F0B5C0803719F0883721F0B0C0FC
:10195000E92FE061BE2EB4FE0DC0FB2DF460BF2E5A
:1019600009C034FE0AC0292F2660B22E06C028E026
:1019700030E005C020E130E002C020E132E0F801B3
:10198000B7FE07C060817181828193810C5F1F4F18
:1019900006C06081718180E090E00E5F1F4FA3015F
:1019A0000E94B70D882E8618FB2DFF773F2E36FE3E
:1019B0000DC0232D2E7FA22E891458F434FE0BC0A7
:1019C00032FC09C0832D8E7EA82E05C0B82CA32C16
:1019D00003C0B82C01C0B92CA4FE0FC0FE01E80D55
:1019E000F11D8081803321F49A2D997EA92E09C0A2
:1019F000A2FE06C0B394B39404C08A2D867809F081
:101A0000B394A3FC11C0A0FE06C0B21488F4280C45
:101A1000922C9B180EC0B21460F4B60180E290E0E4
:101A20000E947B0DB394F7CFB21418F42B1802C0A8
:101A3000982C212CA4FE10C0B60180E390E00E94F7
:101A40007B0DA2FE17C0A1FC03C088E790E002C096
:101A500088E590E0B6010CC08A2D867859F0A1FE89
:101A600002C08BE201C080E2A7FC8DE2B60190E0EB
:101A70000E947B0D891438F4B60180E390E00E9447
:101A80007B0D9A94F7CF8A94F301E80DF11D8081C4
:101A9000B60190E00E947B0D8110F5CF222009F461
:101AA00042CEB60180E290E00E947B0D2A94F6CFF0
:101AB000F6018681978102C08FEF9FEF2B96E2E1BE
:101AC0000C946E0E992788270895FC0105906150AB
:101AD00070400110D8F7809590958E0F9F1F089544
:101AE000FC016150704001900110D8F780959095ED
:101AF0008E0F9F1F08950F931F93CF93DF93FB01CA
:101B0000238121FD03C08FEF9FEF2CC022FF16C061
:101B100046815781248135814217530744F4A081BF
:101B2000B1819D012F5F3F4F318320838C932681AC
:101B300037812F5F3F4F3783268314C08B01EC0121
:101B4000FB010084F185E02D0995892BE1F6D80190
:101B500016968D919C911797019617969C938E934C
:101B60001697CE01DF91CF911F910F910895FA0141
:101B7000AA27283051F1203181F1E8946F936E7FCC
:101B80006E5F7F4F8F4F9F4FAF4FB1E03ED0B4E0BD
:101B90003CD0670F781F891F9A1FA11D680F791FFE
:101BA0008A1F911DA11D6A0F711D811D911DA11D0F
:101BB00020D009F468943F912AE0269F112430191F
:101BC000305D3193DEF6CF010895462F4770405DBA
:101BD0004193B3E00FD0C9F7F6CF462F4F70405D69
:101BE0004A3318F0495D31FD4052419302D0A9F7C4
:101BF000EACFB4E0A6959795879577956795BA95BE
:101C0000C9F700976105710508959B01AC010A2E83
:101C100006945795479537952795BA95C9F7620F5A
:101C2000731F841F951FA01D0895DB018F939F9341
:101C30000E94470EBF91AF91A29F800D911DA39F5F
:101C4000900DB29F900D11240895A1E21A2EAA1BA7
:101C5000BB1BFD010DC0AA1FBB1FEE1FFF1FA2175C
:101C6000B307E407F50720F0A21BB30BE40BF50B59
:101C7000661F771F881F991F1A9469F760957095E2
:101C8000809590959B01AC01BD01CF0108950E9404
:101C9000890EA59F900DB49F900DA49F800D911D5E
:101CA000112408952F923F924F925F926F927F92EC
:101CB0008F929F92AF92BF92CF92DF92EF92FF925C
:101CC0000F931F93CF93DF93CDB7DEB7CA1BDB0B08
:101CD0000FB6F894DEBF0FBECDBF09942A883988AD
:101CE00048885F846E847D848C849B84AA84B984B4
:101CF000C884DF80EE80FD800C811B81AA81B981C0
:101D0000CE0FD11D0FB6F894DEBF0FBECDBFED01D3
:101D10000895A29FB001B39FC001A39F700D811DC4
:101D20001124911DB29F700D811D1124911D0895E4
:041D3000F894FFCF55
:101D340097009A0097009D0097009D0097009700D8
:101D44009D0097009D009700A000A400A800AC008F
:101D5400B000B400B800BC00C000C400C800CC008F
:101D64000132390025640033310032380033300049
:101D74004A616E00466562004D61720041707200F6
:101D84004D6179004A756E004A756C0041756700B3
:101D9400536570004F6374004E6F760044656300B2
:0A1DA40049444C45005461736B0084
:00000001FF
