:100000000C942A000C9447000C9447000C94470071
:100010000C9447000C9447000C9447000C949602F3
:100020000C9447000C9447000C9447000C94D8079C
:100030000C9447000C9447000C9447000C94470024
:100040000C9447000C9447000C9447000C94470014
:100050000C94470011241FBECFE5D8E0DEBFCDBF12
:1000600010E0A0E6B0E0EAECF1E102C005900D92EC
:10007000A837B107D9F727E0A8E7B0E001C01D9283
:10008000A331B207E1F70E94E7070C94E3080C9450
:100090000000E5EEF6E020E330E03183208381E3E9
:1000A00090E09383828380E290E0958384834AE4A6
:1000B00050E05783468341E650E0518740874EE643
:1000C00050E0538742879587848782E390E0978743
:1000D0008687318B208B938B828B84E390E0958B8A
:1000E000848B0895E5ECF6E025EE36E080E290E0C2
:1000F00081939193E217F307D9F70895E5EEF6E0BF
:10010000880F991FDC01AB53B94F2BEF36E081917B
:1001100091918D939D93E217F307C9F708950F937B
:100120001F93CF93DF9360E081E00E94C407C5EC8A
:10013000D6E005EE16E06881229681E00E9467070E
:10014000C017D107C1F7DF91CF911F910F9108958B
:10015000CF93DF93EC010E947200CE010E947E00DB
:100160000E948F00DF91CF910895FC010396928346
:1001700081832FEF3FEF348323839683858390879A
:10018000878310820895FC01118610860895CF930D
:10019000DF939C01FB01DC011196CD91DC9112975C
:1001A000D383C2838C819D81958384838C819D813F
:1001B000DC0113967C936E9312977D836C83318759
:1001C0002087F90180818F5F8083DF91CF9108952F
:1001D000CF93DF93EB01488159814F3F2FEF5207B7
:1001E00021F4FC01A781B0850DC0DC01139601C08C
:1001F000DF011296ED91FC91139720813181421716
:100200005307B0F71296ED91FC911397FB83EA83A5
:10021000D583C483BD83AC831396DC93CE931297AE
:1002200099878887FC0120812F5F2083DF91CF9100
:100230000895CF93DF93FC01A085B185C281D3815E
:10024000848195819D838C83C481D58182819381B2
:100250009B838A8311968D919C911297E817F907D9
:1002600031F48481958112969C938E931197118617
:1002700010868C9181508C938C91DF91CF91089551
:1002800031E1FC013083319722E220833197A3E3EF
:10029000A0833197608331977083319710823197B3
:1002A00060E8608331971082319762E06083319714
:1002B00063E06083319764E06083319765E0608339
:1002C000319766E06083319767E06083319768E03B
:1002D0006083319769E06083319760E16083319793
:1002E0003083319732E13083319733E13083319776
:1002F00034E13083319735E13083319736E1308313
:10030000319737E13083319738E13083319739E1E4
:100310003083319730E23083319731E23083319747
:100320002083319723E22083319740833197508394
:10033000319726E22083319727E22083319728E204
:100340002083319729E22083319720E3208331975E
:1003500021E32083869708951BBC8EE08ABD8BE045
:100360008EBD89B7806189BFA091BB06B091BC06E4
:10037000CD91CDBFDD91DEBFFF91EF91DF91CF91A8
:10038000BF91AF919F918F917F916F915F914F91AD
:100390003F912F911F910F91FF90EF90DF90CF90A1
:1003A000BF90AF909F908F907F906F905F904F9095
:1003B0003F902F901F900F900FBE0F90089581E0F7
:1003C00008950F920FB6F8940F921F9211242F9256
:1003D0003F924F925F926F927F928F929F92AF92D5
:1003E000BF92CF92DF92EF92FF920F931F932F93C2
:1003F0003F934F935F936F937F938F939F93AF93AD
:10040000BF93CF93DF93EF93FF93A091BB06B0917F
:10041000BC060DB60D920EB60D920E940107A0917A
:10042000BB06B091BC06CD91CDBFDD91DEBFFF9183
:10043000EF91DF91CF91BF91AF919F918F917F917C
:100440006F915F914F913F912F911F910F91FF906D
:10045000EF90DF90CF90BF90AF909F908F907F9064
:100460006F905F904F903F902F901F900F900FBE16
:100470000F9008950F920FB6F8940F921F921124C7
:100480002F923F924F925F926F927F928F929F92A4
:10049000AF92BF92CF92DF92EF92FF920F931F9392
:1004A0002F933F934F935F936F937F938F939F937C
:1004B000AF93BF93CF93DF93EF93FF93A091BB06CE
:1004C000B091BC060DB60D920EB60D920E94B3050A
:1004D00081110E940107A091BB06B091BC06CD918D
:1004E000CDBFDD91DEBFFF91EF91DF91CF91BF9145
:1004F000AF919F918F917F916F915F914F913F91BC
:100500002F911F910F91FF90EF90DF90CF90BF90B0
:10051000AF909F908F907F906F905F904F903F90A3
:100520002F901F900F900FBE0F9008950E943A02D7
:100530001895CF93DF93DC01E0E8F0E001C0F9010A
:10054000208131812A173B07D0F382819381AF014B
:10055000480F591FA417B50749F412964D915C91A5
:100560001397840F951F93838283DF0112968D91D9
:100570009C911397ED01C80FD91F2C173D07D9F493
:1005800020917E0030917F00C217D30781F02A812D
:100590003B81820F931F13969C938E931297C08179
:1005A000D1818881998111969C938E9307C0119671
:1005B000DC93CE9303C011963C932E93AE17BF07E6
:1005C00011F0B183A083DF91CF910895CF92DF9294
:1005D000EF92FF920F931F93CF93DF93EC010E9452
:1005E000A30580917E0090917F00892B41F5E0E882
:1005F000F0E0A4E8B0E0B183A08313821282ECE5BE
:10060000F6E0F0937F00E0937E0013821282118265
:10061000108288ED95E013969C938E931297ED933C
:10062000FC9390937B0080937A0090937D0080935D
:100630007C0080E090E89093790080937800E090CF
:100640007800F0907900C7018C239D23892B09F055
:100650005FC0209709F45FC0AE014C5F5F4F09F4A3
:100660005DC000917C0010917D000417150708F40F
:1006700058C0C0918000D0918100E0E8F0E002C055
:10068000FE01E9012A813B812417350728F42881DE
:10069000398121153105A1F780917E0090917F006D
:1006A000C817D90709F440C0C080D18084E0C80EC3
:1006B000D11C88819981918380832A813B81241B6D
:1006C000350B2930310550F0CE01840F951FFC0108
:1006D000338322835B834A830E9499028A819B81B0
:1006E000081B190B10937D0000937C0020917A0069
:1006F00030917B000217130720F410937B000093C6
:100700007A00E82AF92AFB82EA82198218820EC04E
:10071000C12CD12C0BC0C12CD12C08C0C12CD12C88
:1007200005C0C12CD12C02C0C12CD12C0E946E0658
:10073000C601DF91CF911F910F91FF90EF90DF9055
:10074000CF900895CF93DF93009759F1FC01349730
:10075000228133814091780050917900B90164235E
:100760007523672BF1F060817181672BD1F4EF0164
:100770004095509524233523338322830E94A3057B
:1007800020917C0030917D008A819B81820F931F94
:1007900090937D0080937C00CE010E9499020E947C
:1007A0006E06DF91CF910895E0918306F091840663
:1007B0008081811107C08FEF9FEF90936406809333
:1007C00063060895E0918306F09184060580F68122
:1007D000E02D0680F781E02D82819381909364065D
:1007E0008093630608950F931F93CF93DF93EC01DB
:1007F00000916B0610916C068091BB069091BC062F
:1008000002960E941901C00FD11FE091BB06F09122
:10081000BC06D383C283C017D10768F46091BB06BE
:100820007091BC0680918106909182066E5F7F4F29
:100830000E94E80017C06091BB067091BC068091D1
:100840008306909184066E5F7F4F0E94E80080913E
:10085000630690916406C817D90720F4D093640604
:10086000C0936306DF91CF911F910F9108950FE61A
:1008700016E00F2EF7E9EF2EF6E0FF2EF02D809117
:100880006E06882329F10FB6F8940F92D8011596B9
:10089000ED91FC911697C681D781CE0102960E94F8
:1008A000190180916D06815080936D0680916E06CE
:1008B000815080936E060F900FBE8F89988D0E9495
:1008C000A203CE010E94A20380916E068111DBCFAC
:1008D000F7018081823010F00E94E1010E94F70749
:1008E000CECF4F925F926F927F928F929F92AF92F4
:1008F000BF92CF92DF92EF92FF920F93CF93DF934D
:100900004C016B015A012901CA010E94E6023C0117
:10091000892B09F4DDC086E290E00E94E602EC013A
:10092000892B71F0788E6F8A81E0A81AB108A60C25
:10093000B71CD6018C91898F8C91811105C018C08C
:10094000C3010E94A203C4C0AE01465E5F4FF60120
:100950003196B8E0CB0ED11CCF012191DA012D9355
:10096000AD01DC018C91882319F0EC15FD05A1F790
:1009700018A2043008F003E00E8B6E01B2E0CB0E3B
:10098000D11CC6010E94C300CE010C960E94C30078
:10099000D987C88784E090E0801B91099D878C8768
:1009A000DB8BCA8B19A21AA21BA21CA21DA2A20138
:1009B000B401C5010E94400199838883E114F104C8
:1009C00019F0F701D183C0830FB6F8940F9280918C
:1009D0006D068F5F80936D068091BB069091BC067B
:1009E000892BA9F5D093BC06C093BB0680916D06F8
:1009F0008130E9F587E996E00E94B50080EA96E04B
:100A00000E94B50089EA96E00E94B50082EB96E06C
:100A10000E94B5008EE896E00E94B50085E896E059
:100A20000E94B50088E796E00E94B5008FE696E048
:100A30000E94B5008EE896E090938406809383062A
:100A400085E896E0909382068093810610C080919D
:100A5000690681110CC0E091BB06F091BC06968935
:100A60008E89891720F0D093BC06C093BB06809175
:100A700065068F5F809365068E8990916A06981748
:100A800010F480936A0690E09C01220F331F220F1E
:100A9000331F220F331F820F931FB6018956994FC0
:100AA0000E94C7000F900FBE80916906882361F0F5
:100AB000E091BB06F091BC0696898E89981730F4B8
:100AC0000E94E10181E005C081E003C081E001C036
:100AD0008FEFDF91CF910F91FF90EF90DF90CF904C
:100AE000BF90AF909F908F907F906F905F904F904E
:100AF0000895EF92FF920F930F2EF1E6EF2EF6E09E
:100B0000FF2EF02D00E020E030E045E550E061E60A
:100B100070E087E394E00E947104813081F4F894DE
:100B20008FEF9FEF909364068093630681E080933C
:100B3000690610926C0610926B060E94AC010F9130
:100B4000FF90EF900895809160068F5F809360061C
:100B500008950FB6F8940F9280916B0690916C06F1
:100B60000F900FBE0895CF92DF92EF92FF920F93F6
:100B70001F93CF93DF9380916006811199C0E0901D
:100B80006B06F0906C068FEFE81AF80AF0926C068C
:100B9000E0926B06E114F104B9F480918306909120
:100BA000840620918106309182063093840620933A
:100BB00083069093820680938106809166068F5FFC
:100BC000809366060E94D403809163069091640628
:100BD000E816F90610F4D12C53C0D12CCC24C394C0
:100BE000E0918306F09184068081811107C08FEF28
:100BF0009FEF909364068093630642C0E091830662
:100C0000F09184060580F681E02DC681D7818A8126
:100C10009B81E816F90628F4909364068093630696
:100C20002FC08E010E5F1F4FC8010E9419018C89D1
:100C30009D89892B21F0CE010C960E9419018E8985
:100C400090916A06981710F480936A0690E09C01D0
:100C5000220F331F220F331F220F331F820F931FC8
:100C6000B8018956994F0E94C700E091BB06F091E8
:100C7000BC069E898689981708F4B2CFDC2CB0CFC9
:100C8000E091BB06F091BC06868990E0FC01EE0F76
:100C9000FF1FEE0FFF1FEE0FFF1F8E0F9F1FFC01A8
:100CA000E956F94F8081823048F0DD24D39406C0A4
:100CB000809168068F5F80936806D12C80916706CB
:100CC000882311F0DD24D3948D2DDF91CF911F91D6
:100CD0000F91FF90EF90DF90CF900895DF92EF9209
:100CE000FF920F931F93CF93DF930FB6F8940F9259
:100CF000809160068150809360068091600681112A
:100D00005FC080916D06811133C05DC0D70115961B
:100D1000ED91FC911697C681D781CE010C960E9469
:100D200019018E010E5F1F4FC8010E9419018E89A3
:100D300090916A06981710F480936A0690E09C01DF
:100D4000220F331F220F331F220F331F820F931FD7
:100D5000B8018956994F0E94C700E091BB06F091F7
:100D6000BC069E898689981768F0D09267060AC0EB
:100D7000C0E0D0E00F2EF8E7EF2EF6E0FF2EF02DCA
:100D8000DD24D394F70180818111C0CFCD2B11F0E8
:100D90000E94D403C0916806CC2351F0D1E00E9498
:100DA000B3058111D0936706C150C9F71092680648
:100DB00080916706882331F00E94E10181E003C041
:100DC00080E001C080E00F900FBEDF91CF911F91B6
:100DD0000F91FF90EF90DF900895CF93DF93EC0198
:100DE000892B51F00E94A30560E0CE010E94F3031D
:100DF0000E946E06811102C00E94E101DF91CF9135
:100E0000089580916006882321F081E08093670631
:100E100008951092670620916A06822F90E0FC01E7
:100E2000EE0FFF1FEE0FFF1FEE0FFF1FE80FF91F62
:100E3000E956F94F3081311111C02150822F90E0D5
:100E4000FC01EE0FFF1FEE0FFF1FEE0FFF1FE80F5D
:100E5000F91FE956F94F3081332379F3AC01440F80
:100E6000551F440F551F440F551F480F591FDA01D6
:100E7000A956B94F1196ED91FC9112970280F3811A
:100E8000E02D1296FC93EE9311974656594FE417B6
:100E9000F50729F442815381FD0152834183FC010E
:100EA000EE0FFF1FEE0FFF1FEE0FFF1F8E0F9F1F96
:100EB000FC01E956F94F0180F281E02D868197818E
:100EC0009093BC068093BB0620936A0608959BB35B
:100ED000907C9BBB8111DC9A8BB3962F92959F706F
:100EE000892B8BBBDD9A8DE08A95F1F70000DD98A8
:100EF0008DE08A95F1F700008BB3807F8BBB8BB3BD
:100F00006F70682B6BBBDD9A8DE08A95F1F700005E
:100F1000DD988DE08A95F1F7000008958AB38F631C
:100F20008ABB63E380E00E94670787EA91E6019746
:100F3000F1F700C0000062E380E00E94670787EAE3
:100F400091E60197F1F700C0000068E280E00E949E
:100F5000670787EA91E60197F1F700C0000061E0BA
:100F600080E00E94670787EA91E60197F1F700C0E9
:100F700000006CE080E00E94670787EA91E6019735
:100F8000F1F700C000000895811104C060680E945C
:100F900067070895606C80E00E946707089583B733
:100FA0008D6083BF12BE89B7816089BF7894089530
:100FB0001F920F920FB60F9211248F9388B7816002
:100FC00088BF8F910F900FBE0F901F901895E12C46
:100FD000F12C01E020E030E045E550E066E670E00D
:100FE0008CE498E00E9471040E947905FFCF089577
:100FF00080B38F3B51F08F3D19F08F37A1F40CC0B7
:101000001092C2061092C1061AC081E090E090933F
:10101000C2068093C10618C082E090E09093C20699
:101020008093C10616C08091C1069091C20681309E
:10103000910551F08230910561F0892B71F486E9B8
:1010400090E00E94ED0609C084EF91E00E94ED0659
:1010500004C088EE93E00E94ED068091C306909153
:10106000C4068530910511F0009731F4309160008D
:1010700021E023272093600020916000222331F09B
:1010800001979093C4068093C306089501969093A8
:10109000C4068093C30608950E948E070E94AE087E
:1010A0000E944900C8EED3E00E94CF070E94F807D3
:1010B0008091C3069091C4060E949D088091C3064A
:1010C0009091C4060E94A8000E94A9059093C006B2
:1010D0008093BF06BE010E94BB089093BE0680931A
:1010E000BD06E2CFEBEFF6E02BE037E080E2819344
:1010F000E217F307E1F70895EBE0F7E0DC01A25017
:10110000B94F23E137E081918D93E217F307D9F7C7
:1011100008950F931F93CF93DF93CBEFD6E00BE0AF
:1011200017E0699181E00E946707C017D107C9F7EE
:10113000DF91CF911F910F910895CF93DF93EC0131
:1011400060E880E00E9467070E947208CE010E945A
:101150007C080E948908DF91CF910895EBE0F7E0C9
:1011600080E3808381839AE392838383848395835E
:1011700086838783089597FB072E16F4009407D083
:1011800077FD09D00E94CF0807FC05D03EF490956A
:1011900081959F4F0895709561957F4F0895AA1B83
:1011A000BB1B51E107C0AA1FBB1FA617B70710F052
:1011B000A61BB70B881F991F5A95A9F78095909584
:0A11C000BC01CD010895F894FFCFA3
:1011CA000149444C4500446973706C6179436C6F02
:0811DA00636B5461736B0000AC
:00000001FF
